{
  "_format": "hh-sol-artifact-1",
  "contractName": "Ocean",
  "sourceName": "contracts/ocean-nft.sol",
  "abi": [
    {
      "inputs": [],
      "stateMutability": "nonpayable",
      "type": "constructor"
    },
    {
      "anonymous": false,
      "inputs": [
        {
          "indexed": true,
          "internalType": "address",
          "name": "owner",
          "type": "address"
        },
        {
          "indexed": true,
          "internalType": "address",
          "name": "approved",
          "type": "address"
        },
        {
          "indexed": true,
          "internalType": "uint256",
          "name": "tokenId",
          "type": "uint256"
        }
      ],
      "name": "Approval",
      "type": "event"
    },
    {
      "anonymous": false,
      "inputs": [
        {
          "indexed": true,
          "internalType": "address",
          "name": "owner",
          "type": "address"
        },
        {
          "indexed": true,
          "internalType": "address",
          "name": "operator",
          "type": "address"
        },
        {
          "indexed": false,
          "internalType": "bool",
          "name": "approved",
          "type": "bool"
        }
      ],
      "name": "ApprovalForAll",
      "type": "event"
    },
    {
      "anonymous": false,
      "inputs": [
        {
          "indexed": false,
          "internalType": "address",
          "name": "sender",
          "type": "address"
        },
        {
          "indexed": false,
          "internalType": "uint256",
          "name": "tokenId",
          "type": "uint256"
        }
      ],
      "name": "NftMinted",
      "type": "event"
    },
    {
      "anonymous": false,
      "inputs": [
        {
          "indexed": true,
          "internalType": "address",
          "name": "from",
          "type": "address"
        },
        {
          "indexed": true,
          "internalType": "address",
          "name": "to",
          "type": "address"
        },
        {
          "indexed": true,
          "internalType": "uint256",
          "name": "tokenId",
          "type": "uint256"
        }
      ],
      "name": "Transfer",
      "type": "event"
    },
    {
      "inputs": [
        {
          "internalType": "address",
          "name": "to",
          "type": "address"
        },
        {
          "internalType": "uint256",
          "name": "tokenId",
          "type": "uint256"
        }
      ],
      "name": "approve",
      "outputs": [],
      "stateMutability": "nonpayable",
      "type": "function"
    },
    {
      "inputs": [
        {
          "internalType": "address",
          "name": "owner",
          "type": "address"
        }
      ],
      "name": "balanceOf",
      "outputs": [
        {
          "internalType": "uint256",
          "name": "",
          "type": "uint256"
        }
      ],
      "stateMutability": "view",
      "type": "function"
    },
    {
      "inputs": [
        {
          "internalType": "uint256",
          "name": "tokenId",
          "type": "uint256"
        }
      ],
      "name": "getApproved",
      "outputs": [
        {
          "internalType": "address",
          "name": "",
          "type": "address"
        }
      ],
      "stateMutability": "view",
      "type": "function"
    },
    {
      "inputs": [
        {
          "internalType": "address",
          "name": "owner",
          "type": "address"
        },
        {
          "internalType": "address",
          "name": "operator",
          "type": "address"
        }
      ],
      "name": "isApprovedForAll",
      "outputs": [
        {
          "internalType": "bool",
          "name": "",
          "type": "bool"
        }
      ],
      "stateMutability": "view",
      "type": "function"
    },
    {
      "inputs": [
        {
          "internalType": "string",
          "name": "word",
          "type": "string"
        },
        {
          "internalType": "string",
          "name": "neuroticism",
          "type": "string"
        },
        {
          "internalType": "string",
          "name": "agreeableness",
          "type": "string"
        },
        {
          "internalType": "string",
          "name": "openness",
          "type": "string"
        },
        {
          "internalType": "string",
          "name": "conscientiousness",
          "type": "string"
        },
        {
          "internalType": "string",
          "name": "extraversion",
          "type": "string"
        }
      ],
      "name": "makeAnNft",
      "outputs": [],
      "stateMutability": "nonpayable",
      "type": "function"
    },
    {
      "inputs": [],
      "name": "name",
      "outputs": [
        {
          "internalType": "string",
          "name": "",
          "type": "string"
        }
      ],
      "stateMutability": "view",
      "type": "function"
    },
    {
      "inputs": [
        {
          "internalType": "uint256",
          "name": "tokenId",
          "type": "uint256"
        }
      ],
      "name": "ownerOf",
      "outputs": [
        {
          "internalType": "address",
          "name": "",
          "type": "address"
        }
      ],
      "stateMutability": "view",
      "type": "function"
    },
    {
      "inputs": [
        {
          "internalType": "address",
          "name": "from",
          "type": "address"
        },
        {
          "internalType": "address",
          "name": "to",
          "type": "address"
        },
        {
          "internalType": "uint256",
          "name": "tokenId",
          "type": "uint256"
        }
      ],
      "name": "safeTransferFrom",
      "outputs": [],
      "stateMutability": "nonpayable",
      "type": "function"
    },
    {
      "inputs": [
        {
          "internalType": "address",
          "name": "from",
          "type": "address"
        },
        {
          "internalType": "address",
          "name": "to",
          "type": "address"
        },
        {
          "internalType": "uint256",
          "name": "tokenId",
          "type": "uint256"
        },
        {
          "internalType": "bytes",
          "name": "_data",
          "type": "bytes"
        }
      ],
      "name": "safeTransferFrom",
      "outputs": [],
      "stateMutability": "nonpayable",
      "type": "function"
    },
    {
      "inputs": [
        {
          "internalType": "address",
          "name": "operator",
          "type": "address"
        },
        {
          "internalType": "bool",
          "name": "approved",
          "type": "bool"
        }
      ],
      "name": "setApprovalForAll",
      "outputs": [],
      "stateMutability": "nonpayable",
      "type": "function"
    },
    {
      "inputs": [
        {
          "internalType": "bytes4",
          "name": "interfaceId",
          "type": "bytes4"
        }
      ],
      "name": "supportsInterface",
      "outputs": [
        {
          "internalType": "bool",
          "name": "",
          "type": "bool"
        }
      ],
      "stateMutability": "view",
      "type": "function"
    },
    {
      "inputs": [],
      "name": "symbol",
      "outputs": [
        {
          "internalType": "string",
          "name": "",
          "type": "string"
        }
      ],
      "stateMutability": "view",
      "type": "function"
    },
    {
      "inputs": [
        {
          "internalType": "uint256",
          "name": "tokenId",
          "type": "uint256"
        }
      ],
      "name": "tokenURI",
      "outputs": [
        {
          "internalType": "string",
          "name": "",
          "type": "string"
        }
      ],
      "stateMutability": "view",
      "type": "function"
    },
    {
      "inputs": [
        {
          "internalType": "address",
          "name": "from",
          "type": "address"
        },
        {
          "internalType": "address",
          "name": "to",
          "type": "address"
        },
        {
          "internalType": "uint256",
          "name": "tokenId",
          "type": "uint256"
        }
      ],
      "name": "transferFrom",
      "outputs": [],
      "stateMutability": "nonpayable",
      "type": "function"
    }
  ],
  "bytecode": "0x608060405260405180610160016040528061012f815260200162003c1461012f9139600890805190602001906200003892919062000204565b503480156200004657600080fd5b506040518060400160405280600581526020017f4f6365616e0000000000000000000000000000000000000000000000000000008152506040518060400160405280600381526020017f4f434e00000000000000000000000000000000000000000000000000000000008152508160009080519060200190620000cb92919062000204565b508060019080519060200190620000e492919062000204565b505050620001326040518060400160405280600d81526020017f54686973206973204f6365616e000000000000000000000000000000000000008152506200013860201b62000c821760201c565b620003e1565b620001d8816040516024016200014f9190620002f5565b6040516020818303038152906040527f41304fac000000000000000000000000000000000000000000000000000000007bffffffffffffffffffffffffffffffffffffffffffffffffffffffff19166020820180517bffffffffffffffffffffffffffffffffffffffffffffffffffffffff8381831617835250505050620001db60201b60201c565b50565b60008151905060006a636f6e736f6c652e6c6f679050602083016000808483855afa5050505050565b82805462000212906200036b565b90600052602060002090601f01602090048101928262000236576000855562000282565b82601f106200025157805160ff191683800117855562000282565b8280016001018555821562000282579182015b828111156200028157825182559160200191906001019062000264565b5b50905062000291919062000295565b5090565b5b80821115620002b057600081600090555060010162000296565b5090565b6000620002c18262000319565b620002cd818562000324565b9350620002df81856020860162000335565b620002ea81620003d0565b840191505092915050565b60006020820190508181036000830152620003118184620002b4565b905092915050565b600081519050919050565b600082825260208201905092915050565b60005b838110156200035557808201518184015260208101905062000338565b8381111562000365576000848401525b50505050565b600060028204905060018216806200038457607f821691505b602082108114156200039b576200039a620003a1565b5b50919050565b7f4e487b7100000000000000000000000000000000000000000000000000000000600052602260045260246000fd5b6000601f19601f8301169050919050565b61382380620003f16000396000f3fe608060405234801561001057600080fd5b50600436106100ea5760003560e01c80636352211e1161008c578063a22cb46511610066578063a22cb4651461025b578063b88d4fde14610277578063c87b56dd14610293578063e985e9c5146102c3576100ea565b80636352211e146101dd57806370a082311461020d57806395d89b411461023d576100ea565b8063095ea7b3116100c8578063095ea7b31461016d5780630c2f34901461018957806323b872dd146101a557806342842e0e146101c1576100ea565b806301ffc9a7146100ef57806306fdde031461011f578063081812fc1461013d575b600080fd5b610109600480360381019061010491906120c4565b6102f3565b60405161011691906128f7565b60405180910390f35b6101276103d5565b6040516101349190612912565b60405180910390f35b6101576004803603810190610152919061222f565b610467565b6040516101649190612867565b60405180910390f35b61018760048036038101906101829190612088565b6104ec565b005b6101a3600480360381019061019e9190612116565b610604565b005b6101bf60048036038101906101ba9190611f82565b6107a8565b005b6101db60048036038101906101d69190611f82565b610808565b005b6101f760048036038101906101f2919061222f565b610828565b6040516102049190612867565b60405180910390f35b61022760048036038101906102229190611f1d565b6108da565b6040516102349190612b72565b60405180910390f35b610245610992565b6040516102529190612912565b60405180910390f35b6102756004803603810190610270919061204c565b610a24565b005b610291600480360381019061028c9190611fd1565b610a3a565b005b6102ad60048036038101906102a8919061222f565b610a9c565b6040516102ba9190612912565b60405180910390f35b6102dd60048036038101906102d89190611f46565b610bee565b6040516102ea91906128f7565b60405180910390f35b60007f80ac58cd000000000000000000000000000000000000000000000000000000007bffffffffffffffffffffffffffffffffffffffffffffffffffffffff1916827bffffffffffffffffffffffffffffffffffffffffffffffffffffffff191614806103be57507f5b5e139f000000000000000000000000000000000000000000000000000000007bffffffffffffffffffffffffffffffffffffffffffffffffffffffff1916827bffffffffffffffffffffffffffffffffffffffffffffffffffffffff1916145b806103ce57506103cd82610d1b565b5b9050919050565b6060600080546103e490612e37565b80601f016020809104026020016040519081016040528092919081815260200182805461041090612e37565b801561045d5780601f106104325761010080835404028352916020019161045d565b820191906000526020600020905b81548152906001019060200180831161044057829003601f168201915b5050505050905090565b600061047282610d85565b6104b1576040517f08c379a00000000000000000000000000000000000000000000000000000000081526004016104a890612af2565b60405180910390fd5b6004600083815260200190815260200160002060009054906101000a900473ffffffffffffffffffffffffffffffffffffffff169050919050565b60006104f782610828565b90508073ffffffffffffffffffffffffffffffffffffffff168373ffffffffffffffffffffffffffffffffffffffff161415610568576040517f08c379a000000000000000000000000000000000000000000000000000000000815260040161055f90612b32565b60405180910390fd5b8073ffffffffffffffffffffffffffffffffffffffff16610587610df1565b73ffffffffffffffffffffffffffffffffffffffff1614806105b657506105b5816105b0610df1565b610bee565b5b6105f5576040517f08c379a00000000000000000000000000000000000000000000000000000000081526004016105ec90612a32565b60405180910390fd5b6105ff8383610df9565b505050565b60006106106007610eb2565b90506000600888604051602001610628929190612759565b604051602081830303815290604052905060006106778961064884610ec0565b8a898b898b6040516020016106639796959493929190612788565b604051602081830303815290604052610ec0565b905060008160405160200161068c9190612845565b60405160208183030381529060405290506106db6040518060400160405280601581526020017f0a2d2d2d2d2d2d2d2d2d2d2d2d2d2d2d2d2d2d2d2d0000000000000000000000815250610c82565b6106e481610c82565b6107226040518060400160405280601581526020017f2d2d2d2d2d2d2d2d2d2d2d2d2d2d2d2d2d2d2d2d0a0000000000000000000000815250610c82565b61072c338561105f565b610736848261107d565b6107596040518060600160405280602881526020016137c66028913985336110f1565b6107636007611190565b7ff2b290a76feb54be358b555507421d765609171aefa0646f109a653228ff81b833856040516107949291906128ce565b60405180910390a150505050505050505050565b6107b96107b3610df1565b826111a6565b6107f8576040517f08c379a00000000000000000000000000000000000000000000000000000000081526004016107ef90612b52565b60405180910390fd5b610803838383611284565b505050565b61082383838360405180602001604052806000815250610a3a565b505050565b6000806002600084815260200190815260200160002060009054906101000a900473ffffffffffffffffffffffffffffffffffffffff169050600073ffffffffffffffffffffffffffffffffffffffff168173ffffffffffffffffffffffffffffffffffffffff1614156108d1576040517f08c379a00000000000000000000000000000000000000000000000000000000081526004016108c890612a72565b60405180910390fd5b80915050919050565b60008073ffffffffffffffffffffffffffffffffffffffff168273ffffffffffffffffffffffffffffffffffffffff16141561094b576040517f08c379a000000000000000000000000000000000000000000000000000000000815260040161094290612a52565b60405180910390fd5b600360008373ffffffffffffffffffffffffffffffffffffffff1673ffffffffffffffffffffffffffffffffffffffff168152602001908152602001600020549050919050565b6060600180546109a190612e37565b80601f01602080910402602001604051908101604052809291908181526020018280546109cd90612e37565b8015610a1a5780601f106109ef57610100808354040283529160200191610a1a565b820191906000526020600020905b8154815290600101906020018083116109fd57829003601f168201915b5050505050905090565b610a36610a2f610df1565b83836114eb565b5050565b610a4b610a45610df1565b836111a6565b610a8a576040517f08c379a0000000000000000000000000000000000000000000000000000000008152600401610a8190612b52565b60405180910390fd5b610a9684848484611658565b50505050565b6060610aa782610d85565b610ae6576040517f08c379a0000000000000000000000000000000000000000000000000000000008152600401610add90612ad2565b60405180910390fd5b6000600660008481526020019081526020016000208054610b0690612e37565b80601f0160208091040260200160405190810160405280929190818152602001828054610b3290612e37565b8015610b7f5780601f10610b5457610100808354040283529160200191610b7f565b820191906000526020600020905b815481529060010190602001808311610b6257829003601f168201915b505050505090506000610b906116b4565b9050600081511415610ba6578192505050610be9565b600082511115610bdb578082604051602001610bc3929190612735565b60405160208183030381529060405292505050610be9565b610be4846116cb565b925050505b919050565b6000600560008473ffffffffffffffffffffffffffffffffffffffff1673ffffffffffffffffffffffffffffffffffffffff16815260200190815260200160002060008373ffffffffffffffffffffffffffffffffffffffff1673ffffffffffffffffffffffffffffffffffffffff16815260200190815260200160002060009054906101000a900460ff16905092915050565b610d1881604051602401610c969190612912565b6040516020818303038152906040527f41304fac000000000000000000000000000000000000000000000000000000007bffffffffffffffffffffffffffffffffffffffffffffffffffffffff19166020820180517bffffffffffffffffffffffffffffffffffffffffffffffffffffffff8381831617835250505050611772565b50565b60007f01ffc9a7000000000000000000000000000000000000000000000000000000007bffffffffffffffffffffffffffffffffffffffffffffffffffffffff1916827bffffffffffffffffffffffffffffffffffffffffffffffffffffffff1916149050919050565b60008073ffffffffffffffffffffffffffffffffffffffff166002600084815260200190815260200160002060009054906101000a900473ffffffffffffffffffffffffffffffffffffffff1673ffffffffffffffffffffffffffffffffffffffff1614159050919050565b600033905090565b816004600083815260200190815260200160002060006101000a81548173ffffffffffffffffffffffffffffffffffffffff021916908373ffffffffffffffffffffffffffffffffffffffff160217905550808273ffffffffffffffffffffffffffffffffffffffff16610e6c83610828565b73ffffffffffffffffffffffffffffffffffffffff167f8c5be1e5ebec7d5bd14f71427d1e84f3dd0314c0f7b2291e5b200ac8c7c3b92560405160405180910390a45050565b600081600001549050919050565b6060600082511415610ee35760405180602001604052806000815250905061105a565b60006040518060600160405280604081526020016137866040913990506000600360028551610f129190612c6c565b610f1c9190612cc2565b6004610f289190612cf3565b90506000602082610f399190612c6c565b67ffffffffffffffff811115610f78577f4e487b7100000000000000000000000000000000000000000000000000000000600052604160045260246000fd5b6040519080825280601f01601f191660200182016040528015610faa5781602001600182028036833780820191505090505b509050818152600183018586518101602084015b81831015611019576003830192508251603f8160121c168501518253600182019150603f81600c1c168501518253600182019150603f8160061c168501518253600182019150603f8116850151825360018201915050610fbe565b60038951066001811461103357600281146110435761104e565b613d3d60f01b600283035261104e565b603d60f81b60018303525b50505050508093505050505b919050565b61107982826040518060200160405280600081525061179b565b5050565b61108682610d85565b6110c5576040517f08c379a00000000000000000000000000000000000000000000000000000000081526004016110bc90612a92565b60405180910390fd5b806006600084815260200190815260200160002090805190602001906110ec929190611d41565b505050565b61118b83838360405160240161110993929190612934565b6040516020818303038152906040527fe3849f79000000000000000000000000000000000000000000000000000000007bffffffffffffffffffffffffffffffffffffffffffffffffffffffff19166020820180517bffffffffffffffffffffffffffffffffffffffffffffffffffffffff8381831617835250505050611772565b505050565b6001816000016000828254019250508190555050565b60006111b182610d85565b6111f0576040517f08c379a00000000000000000000000000000000000000000000000000000000081526004016111e790612a12565b60405180910390fd5b60006111fb83610828565b90508073ffffffffffffffffffffffffffffffffffffffff168473ffffffffffffffffffffffffffffffffffffffff16148061126a57508373ffffffffffffffffffffffffffffffffffffffff1661125284610467565b73ffffffffffffffffffffffffffffffffffffffff16145b8061127b575061127a8185610bee565b5b91505092915050565b8273ffffffffffffffffffffffffffffffffffffffff166112a482610828565b73ffffffffffffffffffffffffffffffffffffffff16146112fa576040517f08c379a00000000000000000000000000000000000000000000000000000000081526004016112f190612992565b60405180910390fd5b600073ffffffffffffffffffffffffffffffffffffffff168273ffffffffffffffffffffffffffffffffffffffff16141561136a576040517f08c379a0000000000000000000000000000000000000000000000000000000008152600401611361906129d2565b60405180910390fd5b6113758383836117f6565b611380600082610df9565b6001600360008573ffffffffffffffffffffffffffffffffffffffff1673ffffffffffffffffffffffffffffffffffffffff16815260200190815260200160002060008282546113d09190612d4d565b925050819055506001600360008473ffffffffffffffffffffffffffffffffffffffff1673ffffffffffffffffffffffffffffffffffffffff16815260200190815260200160002060008282546114279190612c6c565b92505081905550816002600083815260200190815260200160002060006101000a81548173ffffffffffffffffffffffffffffffffffffffff021916908373ffffffffffffffffffffffffffffffffffffffff160217905550808273ffffffffffffffffffffffffffffffffffffffff168473ffffffffffffffffffffffffffffffffffffffff167fddf252ad1be2c89b69c2b068fc378daa952ba7f163c4a11628f55a4df523b3ef60405160405180910390a46114e68383836117fb565b505050565b8173ffffffffffffffffffffffffffffffffffffffff168373ffffffffffffffffffffffffffffffffffffffff16141561155a576040517f08c379a0000000000000000000000000000000000000000000000000000000008152600401611551906129f2565b60405180910390fd5b80600560008573ffffffffffffffffffffffffffffffffffffffff1673ffffffffffffffffffffffffffffffffffffffff16815260200190815260200160002060008473ffffffffffffffffffffffffffffffffffffffff1673ffffffffffffffffffffffffffffffffffffffff16815260200190815260200160002060006101000a81548160ff0219169083151502179055508173ffffffffffffffffffffffffffffffffffffffff168373ffffffffffffffffffffffffffffffffffffffff167f17307eab39ab6107e8899845ad3d59bd9653f200f220920489ca2b5937696c318360405161164b91906128f7565b60405180910390a3505050565b611663848484611284565b61166f84848484611800565b6116ae576040517f08c379a00000000000000000000000000000000000000000000000000000000081526004016116a590612972565b60405180910390fd5b50505050565b606060405180602001604052806000815250905090565b60606116d682610d85565b611715576040517f08c379a000000000000000000000000000000000000000000000000000000000815260040161170c90612b12565b60405180910390fd5b600061171f6116b4565b9050600081511161173f576040518060200160405280600081525061176a565b8061174984611997565b60405160200161175a929190612735565b6040516020818303038152906040525b915050919050565b60008151905060006a636f6e736f6c652e6c6f679050602083016000808483855afa5050505050565b6117a58383611b44565b6117b26000848484611800565b6117f1576040517f08c379a00000000000000000000000000000000000000000000000000000000081526004016117e890612972565b60405180910390fd5b505050565b505050565b505050565b60006118218473ffffffffffffffffffffffffffffffffffffffff16611d1e565b1561198a578373ffffffffffffffffffffffffffffffffffffffff1663150b7a0261184a610df1565b8786866040518563ffffffff1660e01b815260040161186c9493929190612882565b602060405180830381600087803b15801561188657600080fd5b505af19250505080156118b757506040513d601f19601f820116820180604052508101906118b491906120ed565b60015b61193a573d80600081146118e7576040519150601f19603f3d011682016040523d82523d6000602084013e6118ec565b606091505b50600081511415611932576040517f08c379a000000000000000000000000000000000000000000000000000000000815260040161192990612972565b60405180910390fd5b805181602001fd5b63150b7a0260e01b7bffffffffffffffffffffffffffffffffffffffffffffffffffffffff1916817bffffffffffffffffffffffffffffffffffffffffffffffffffffffff19161491505061198f565b600190505b949350505050565b606060008214156119df576040518060400160405280600181526020017f30000000000000000000000000000000000000000000000000000000000000008152509050611b3f565b600082905060005b60008214611a115780806119fa90612e9a565b915050600a82611a0a9190612cc2565b91506119e7565b60008167ffffffffffffffff811115611a53577f4e487b7100000000000000000000000000000000000000000000000000000000600052604160045260246000fd5b6040519080825280601f01601f191660200182016040528015611a855781602001600182028036833780820191505090505b5090505b60008514611b3857600182611a9e9190612d4d565b9150600a85611aad9190612ee3565b6030611ab99190612c6c565b60f81b818381518110611af5577f4e487b7100000000000000000000000000000000000000000000000000000000600052603260045260246000fd5b60200101907effffffffffffffffffffffffffffffffffffffffffffffffffffffffffffff1916908160001a905350600a85611b319190612cc2565b9450611a89565b8093505050505b919050565b600073ffffffffffffffffffffffffffffffffffffffff168273ffffffffffffffffffffffffffffffffffffffff161415611bb4576040517f08c379a0000000000000000000000000000000000000000000000000000000008152600401611bab90612ab2565b60405180910390fd5b611bbd81610d85565b15611bfd576040517f08c379a0000000000000000000000000000000000000000000000000000000008152600401611bf4906129b2565b60405180910390fd5b611c09600083836117f6565b6001600360008473ffffffffffffffffffffffffffffffffffffffff1673ffffffffffffffffffffffffffffffffffffffff1681526020019081526020016000206000828254611c599190612c6c565b92505081905550816002600083815260200190815260200160002060006101000a81548173ffffffffffffffffffffffffffffffffffffffff021916908373ffffffffffffffffffffffffffffffffffffffff160217905550808273ffffffffffffffffffffffffffffffffffffffff16600073ffffffffffffffffffffffffffffffffffffffff167fddf252ad1be2c89b69c2b068fc378daa952ba7f163c4a11628f55a4df523b3ef60405160405180910390a4611d1a600083836117fb565b5050565b6000808273ffffffffffffffffffffffffffffffffffffffff163b119050919050565b828054611d4d90612e37565b90600052602060002090601f016020900481019282611d6f5760008555611db6565b82601f10611d8857805160ff1916838001178555611db6565b82800160010185558215611db6579182015b82811115611db5578251825591602001919060010190611d9a565b5b509050611dc39190611dc7565b5090565b5b80821115611de0576000816000905550600101611dc8565b5090565b6000611df7611df284612bb2565b612b8d565b905082815260208101848484011115611e0f57600080fd5b611e1a848285612df5565b509392505050565b6000611e35611e3084612be3565b612b8d565b905082815260208101848484011115611e4d57600080fd5b611e58848285612df5565b509392505050565b600081359050611e6f81613729565b92915050565b600081359050611e8481613740565b92915050565b600081359050611e9981613757565b92915050565b600081519050611eae81613757565b92915050565b600082601f830112611ec557600080fd5b8135611ed5848260208601611de4565b91505092915050565b600082601f830112611eef57600080fd5b8135611eff848260208601611e22565b91505092915050565b600081359050611f178161376e565b92915050565b600060208284031215611f2f57600080fd5b6000611f3d84828501611e60565b91505092915050565b60008060408385031215611f5957600080fd5b6000611f6785828601611e60565b9250506020611f7885828601611e60565b9150509250929050565b600080600060608486031215611f9757600080fd5b6000611fa586828701611e60565b9350506020611fb686828701611e60565b9250506040611fc786828701611f08565b9150509250925092565b60008060008060808587031215611fe757600080fd5b6000611ff587828801611e60565b945050602061200687828801611e60565b935050604061201787828801611f08565b925050606085013567ffffffffffffffff81111561203457600080fd5b61204087828801611eb4565b91505092959194509250565b6000806040838503121561205f57600080fd5b600061206d85828601611e60565b925050602061207e85828601611e75565b9150509250929050565b6000806040838503121561209b57600080fd5b60006120a985828601611e60565b92505060206120ba85828601611f08565b9150509250929050565b6000602082840312156120d657600080fd5b60006120e484828501611e8a565b91505092915050565b6000602082840312156120ff57600080fd5b600061210d84828501611e9f565b91505092915050565b60008060008060008060c0878903121561212f57600080fd5b600087013567ffffffffffffffff81111561214957600080fd5b61215589828a01611ede565b965050602087013567ffffffffffffffff81111561217257600080fd5b61217e89828a01611ede565b955050604087013567ffffffffffffffff81111561219b57600080fd5b6121a789828a01611ede565b945050606087013567ffffffffffffffff8111156121c457600080fd5b6121d089828a01611ede565b935050608087013567ffffffffffffffff8111156121ed57600080fd5b6121f989828a01611ede565b92505060a087013567ffffffffffffffff81111561221657600080fd5b61222289828a01611ede565b9150509295509295509295565b60006020828403121561224157600080fd5b600061224f84828501611f08565b91505092915050565b61226181612d81565b82525050565b61227081612d93565b82525050565b600061228182612c29565b61228b8185612c3f565b935061229b818560208601612e04565b6122a481612fd0565b840191505092915050565b60006122ba82612c34565b6122c48185612c50565b93506122d4818560208601612e04565b6122dd81612fd0565b840191505092915050565b60006122f382612c34565b6122fd8185612c61565b935061230d818560208601612e04565b80840191505092915050565b6000815461232681612e37565b6123308186612c61565b9450600182166000811461234b576001811461235c5761238f565b60ff1983168652818601935061238f565b61236585612c14565b60005b8381101561238757815481890152600182019150602081019050612368565b838801955050505b50505092915050565b60006123a5602d83612c61565b91506123b082612fe1565b602d82019050919050565b60006123c8602c83612c61565b91506123d382613030565b602c82019050919050565b60006123eb603183612c61565b91506123f68261307f565b603182019050919050565b600061240e603283612c50565b9150612419826130ce565b604082019050919050565b6000612431602583612c50565b915061243c8261311d565b604082019050919050565b6000612454602983612c61565b915061245f8261316c565b602982019050919050565b6000612477601c83612c50565b9150612482826131bb565b602082019050919050565b600061249a602483612c50565b91506124a5826131e4565b604082019050919050565b60006124bd601983612c50565b91506124c882613233565b602082019050919050565b60006124e0602c83612c50565b91506124eb8261325c565b604082019050919050565b6000612503600d83612c61565b915061250e826132ab565b600d82019050919050565b6000612526603b83612c61565b9150612531826132d4565b603b82019050919050565b6000612549603883612c50565b915061255482613323565b604082019050919050565b600061256c602a83612c50565b915061257782613372565b604082019050919050565b600061258f602983612c50565b915061259a826133c1565b604082019050919050565b60006125b2602e83612c50565b91506125bd82613410565b604082019050919050565b60006125d5602083612c50565b91506125e08261345f565b602082019050919050565b60006125f8603183612c50565b915061260382613488565b604082019050919050565b600061261b602c83612c50565b9150612626826134d7565b604082019050919050565b600061263e600683612c61565b915061264982613526565b600682019050919050565b6000612661602f83612c50565b915061266c8261354f565b604082019050919050565b6000612684600a83612c61565b915061268f8261359e565b600a82019050919050565b60006126a7602183612c50565b91506126b2826135c7565b604082019050919050565b60006126ca601d83612c61565b91506126d582613616565b601d82019050919050565b60006126ed606b83612c61565b91506126f88261363f565b606b82019050919050565b6000612710603183612c50565b915061271b826136da565b604082019050919050565b61272f81612deb565b82525050565b600061274182856122e8565b915061274d82846122e8565b91508190509392505050565b60006127658285612319565b915061277182846122e8565b915061277c826124f6565b91508190509392505050565b600061279382612677565b915061279f828a6122e8565b91506127aa826126e0565b91506127b682896122e8565b91506127c182612519565b91506127cd82886122e8565b91506127d882612447565b91506127e482876122e8565b91506127ef82612398565b91506127fb82866122e8565b9150612806826123bb565b915061281282856122e8565b915061281d826123de565b915061282982846122e8565b915061283482612631565b915081905098975050505050505050565b6000612850826126bd565b915061285c82846122e8565b915081905092915050565b600060208201905061287c6000830184612258565b92915050565b60006080820190506128976000830187612258565b6128a46020830186612258565b6128b16040830185612726565b81810360608301526128c38184612276565b905095945050505050565b60006040820190506128e36000830185612258565b6128f06020830184612726565b9392505050565b600060208201905061290c6000830184612267565b92915050565b6000602082019050818103600083015261292c81846122af565b905092915050565b6000606082019050818103600083015261294e81866122af565b905061295d6020830185612726565b61296a6040830184612258565b949350505050565b6000602082019050818103600083015261298b81612401565b9050919050565b600060208201905081810360008301526129ab81612424565b9050919050565b600060208201905081810360008301526129cb8161246a565b9050919050565b600060208201905081810360008301526129eb8161248d565b9050919050565b60006020820190508181036000830152612a0b816124b0565b9050919050565b60006020820190508181036000830152612a2b816124d3565b9050919050565b60006020820190508181036000830152612a4b8161253c565b9050919050565b60006020820190508181036000830152612a6b8161255f565b9050919050565b60006020820190508181036000830152612a8b81612582565b9050919050565b60006020820190508181036000830152612aab816125a5565b9050919050565b60006020820190508181036000830152612acb816125c8565b9050919050565b60006020820190508181036000830152612aeb816125eb565b9050919050565b60006020820190508181036000830152612b0b8161260e565b9050919050565b60006020820190508181036000830152612b2b81612654565b9050919050565b60006020820190508181036000830152612b4b8161269a565b9050919050565b60006020820190508181036000830152612b6b81612703565b9050919050565b6000602082019050612b876000830184612726565b92915050565b6000612b97612ba8565b9050612ba38282612e69565b919050565b6000604051905090565b600067ffffffffffffffff821115612bcd57612bcc612fa1565b5b612bd682612fd0565b9050602081019050919050565b600067ffffffffffffffff821115612bfe57612bfd612fa1565b5b612c0782612fd0565b9050602081019050919050565b60008190508160005260206000209050919050565b600081519050919050565b600081519050919050565b600082825260208201905092915050565b600082825260208201905092915050565b600081905092915050565b6000612c7782612deb565b9150612c8283612deb565b9250827fffffffffffffffffffffffffffffffffffffffffffffffffffffffffffffffff03821115612cb757612cb6612f14565b5b828201905092915050565b6000612ccd82612deb565b9150612cd883612deb565b925082612ce857612ce7612f43565b5b828204905092915050565b6000612cfe82612deb565b9150612d0983612deb565b9250817fffffffffffffffffffffffffffffffffffffffffffffffffffffffffffffffff0483118215151615612d4257612d41612f14565b5b828202905092915050565b6000612d5882612deb565b9150612d6383612deb565b925082821015612d7657612d75612f14565b5b828203905092915050565b6000612d8c82612dcb565b9050919050565b60008115159050919050565b60007fffffffff0000000000000000000000000000000000000000000000000000000082169050919050565b600073ffffffffffffffffffffffffffffffffffffffff82169050919050565b6000819050919050565b82818337600083830152505050565b60005b83811015612e22578082015181840152602081019050612e07565b83811115612e31576000848401525b50505050565b60006002820490506001821680612e4f57607f821691505b60208210811415612e6357612e62612f72565b5b50919050565b612e7282612fd0565b810181811067ffffffffffffffff82111715612e9157612e90612fa1565b5b80604052505050565b6000612ea582612deb565b91507fffffffffffffffffffffffffffffffffffffffffffffffffffffffffffffffff821415612ed857612ed7612f14565b5b600182019050919050565b6000612eee82612deb565b9150612ef983612deb565b925082612f0957612f08612f43565b5b828206905092915050565b7f4e487b7100000000000000000000000000000000000000000000000000000000600052601160045260246000fd5b7f4e487b7100000000000000000000000000000000000000000000000000000000600052601260045260246000fd5b7f4e487b7100000000000000000000000000000000000000000000000000000000600052602260045260246000fd5b7f4e487b7100000000000000000000000000000000000000000000000000000000600052604160045260246000fd5b6000601f19601f8301169050919050565b7f7d2c207b202274726169745f74797065223a2022616772656561626c656e657360008201527f73222c202276616c7565223a2000000000000000000000000000000000000000602082015250565b7f7d2c207b202274726169745f74797065223a2022657874726176657273696f6e60008201527f222c202276616c7565223a200000000000000000000000000000000000000000602082015250565b7f7d2c207b202274726169745f74797065223a2022636f6e736369656e74696f7560008201527f736e657373222c202276616c7565223a20000000000000000000000000000000602082015250565b7f4552433732313a207472616e7366657220746f206e6f6e20455243373231526560008201527f63656976657220696d706c656d656e7465720000000000000000000000000000602082015250565b7f4552433732313a207472616e736665722066726f6d20696e636f72726563742060008201527f6f776e6572000000000000000000000000000000000000000000000000000000602082015250565b7f207d2c207b202274726169745f74797065223a20226f70656e6e657373222c2060008201527f2276616c7565223a200000000000000000000000000000000000000000000000602082015250565b7f4552433732313a20746f6b656e20616c7265616479206d696e74656400000000600082015250565b7f4552433732313a207472616e7366657220746f20746865207a65726f2061646460008201527f7265737300000000000000000000000000000000000000000000000000000000602082015250565b7f4552433732313a20617070726f766520746f2063616c6c657200000000000000600082015250565b7f4552433732313a206f70657261746f7220717565727920666f72206e6f6e657860008201527f697374656e7420746f6b656e0000000000000000000000000000000000000000602082015250565b7f3c2f746578743e3c2f7376673e00000000000000000000000000000000000000600082015250565b7f222c202261747472696275746573223a205b207b202274726169745f7479706560008201527f223a20226e6575726f74696369736d222c202276616c7565223a200000000000602082015250565b7f4552433732313a20617070726f76652063616c6c6572206973206e6f74206f7760008201527f6e6572206e6f7220617070726f76656420666f7220616c6c0000000000000000602082015250565b7f4552433732313a2062616c616e636520717565727920666f7220746865207a6560008201527f726f206164647265737300000000000000000000000000000000000000000000602082015250565b7f4552433732313a206f776e657220717565727920666f72206e6f6e657869737460008201527f656e7420746f6b656e0000000000000000000000000000000000000000000000602082015250565b7f45524337323155524953746f726167653a2055524920736574206f66206e6f6e60008201527f6578697374656e7420746f6b656e000000000000000000000000000000000000602082015250565b7f4552433732313a206d696e7420746f20746865207a65726f2061646472657373600082015250565b7f45524337323155524953746f726167653a2055524920717565727920666f722060008201527f6e6f6e6578697374656e7420746f6b656e000000000000000000000000000000602082015250565b7f4552433732313a20617070726f76656420717565727920666f72206e6f6e657860008201527f697374656e7420746f6b656e0000000000000000000000000000000000000000602082015250565b7f7d205d7d227d0000000000000000000000000000000000000000000000000000600082015250565b7f4552433732314d657461646174613a2055524920717565727920666f72206e6f60008201527f6e6578697374656e7420746f6b656e0000000000000000000000000000000000602082015250565b7f7b226e616d65223a202200000000000000000000000000000000000000000000600082015250565b7f4552433732313a20617070726f76616c20746f2063757272656e74206f776e6560008201527f7200000000000000000000000000000000000000000000000000000000000000602082015250565b7f646174613a6170706c69636174696f6e2f6a736f6e3b6261736536342c000000600082015250565b7f222c20226465736372697074696f6e223a2022737570657220736369656e746960008201527f6663616c6c792076616c69646174656420706572736f6e616c6974792073636f60208201527f7265732e222c2022696d616765223a2022646174613a696d6167652f7376672b60408201527f786d6c3b6261736536342c000000000000000000000000000000000000000000606082015250565b7f4552433732313a207472616e736665722063616c6c6572206973206e6f74206f60008201527f776e6572206e6f7220617070726f766564000000000000000000000000000000602082015250565b61373281612d81565b811461373d57600080fd5b50565b61374981612d93565b811461375457600080fd5b50565b61376081612d9f565b811461376b57600080fd5b50565b61377781612deb565b811461378257600080fd5b5056fe4142434445464748494a4b4c4d4e4f505152535455565758595a6162636465666768696a6b6c6d6e6f707172737475767778797a303132333435363738392b2f416e204e465420776974682049443a20257320686173206265656e206d696e74656420746f202573a2646970667358221220f833721dd8526892401efc633ed3fac52cd7aa16111b97b4a583667725136e1564736f6c634300080100333c73766720786d6c6e733d27687474703a2f2f7777772e77332e6f72672f323030302f73766727207072657365727665417370656374526174696f3d27784d696e594d696e206d656574272076696577426f783d273020302033353020333530273e3c7374796c653e2e62617365207b2066696c6c3a2077686974653b20666f6e742d66616d696c793a2073657269663b20666f6e742d73697a653a20323470783b207d3c2f7374796c653e3c726563742077696474683d273130302527206865696768743d2731303025272066696c6c3d27626c61636b27202f3e3c7465787420783d273530252720793d273530252720636c6173733d27626173652720646f6d696e616e742d626173656c696e653d276d6964646c652720746578742d616e63686f723d276d6964646c65273e",
  "linkReferences": {},
  "deployedLinkReferences": {}
}